{
  "contractName": "CompInteract",
  "abi": [
    {
      "inputs": [
        {
          "internalType": "address",
          "name": "_comptroller",
          "type": "address"
        },
        {
          "internalType": "address",
          "name": "_priceOracle",
          "type": "address"
        }
      ],
      "stateMutability": "nonpayable",
      "type": "constructor"
    },
    {
      "inputs": [],
      "name": "comptroller",
      "outputs": [
        {
          "internalType": "contract ComptrollerInterface",
          "name": "",
          "type": "address"
        }
      ],
      "stateMutability": "view",
      "type": "function"
    },
    {
      "inputs": [],
      "name": "priceOracle",
      "outputs": [
        {
          "internalType": "contract PriceOracleInterface",
          "name": "",
          "type": "address"
        }
      ],
      "stateMutability": "view",
      "type": "function"
    },
    {
      "inputs": [
        {
          "internalType": "address",
          "name": "cTokenAddress",
          "type": "address"
        },
        {
          "internalType": "uint256",
          "name": "underlyingAmount",
          "type": "uint256"
        }
      ],
      "name": "supply",
      "outputs": [],
      "stateMutability": "nonpayable",
      "type": "function"
    },
    {
      "inputs": [
        {
          "internalType": "address",
          "name": "cTokenAddress",
          "type": "address"
        },
        {
          "internalType": "uint256",
          "name": "cTokenAmount",
          "type": "uint256"
        }
      ],
      "name": "redeem",
      "outputs": [],
      "stateMutability": "nonpayable",
      "type": "function"
    },
    {
      "inputs": [
        {
          "internalType": "address",
          "name": "cTokenAddress",
          "type": "address"
        }
      ],
      "name": "enterMarket",
      "outputs": [],
      "stateMutability": "nonpayable",
      "type": "function"
    },
    {
      "inputs": [
        {
          "internalType": "address",
          "name": "cTokenAddress",
          "type": "address"
        },
        {
          "internalType": "uint256",
          "name": "borrowAmount",
          "type": "uint256"
        }
      ],
      "name": "borrow",
      "outputs": [],
      "stateMutability": "nonpayable",
      "type": "function"
    },
    {
      "inputs": [
        {
          "internalType": "address",
          "name": "cTokenAddress",
          "type": "address"
        },
        {
          "internalType": "uint256",
          "name": "underlyingAmount",
          "type": "uint256"
        }
      ],
      "name": "repayBorrow",
      "outputs": [],
      "stateMutability": "nonpayable",
      "type": "function"
    },
    {
      "inputs": [
        {
          "internalType": "address",
          "name": "cTokenAddress",
          "type": "address"
        }
      ],
      "name": "getmaxBorrow",
      "outputs": [
        {
          "internalType": "uint256",
          "name": "",
          "type": "uint256"
        }
      ],
      "stateMutability": "view",
      "type": "function"
    }
  ],
  "bytecode": "0x60806040523480156200001157600080fd5b50604051620019663803806200196683398181016040528101906200003791906200012a565b816000806101000a81548173ffffffffffffffffffffffffffffffffffffffff021916908373ffffffffffffffffffffffffffffffffffffffff16021790555080600160006101000a81548173ffffffffffffffffffffffffffffffffffffffff021916908373ffffffffffffffffffffffffffffffffffffffff160217905550505062000171565b600080fd5b600073ffffffffffffffffffffffffffffffffffffffff82169050919050565b6000620000f282620000c5565b9050919050565b6200010481620000e5565b81146200011057600080fd5b50565b6000815190506200012481620000f9565b92915050565b60008060408385031215620001445762000143620000c0565b5b6000620001548582860162000113565b9250506020620001678582860162000113565b9150509250929050565b6117e580620001816000396000f3fe608060405234801561001057600080fd5b50600436106100885760003560e01c80635fe3b5671161005b5780635fe3b567146100ff5780639e756ef31461011d578063abdb5ea81461014d578063f2b9fdb81461016957610088565b80631e9a69501461008d5780632630c12f146100a95780633fe5d425146100c75780634b8a3529146100e3575b600080fd5b6100a760048036038101906100a29190610c89565b610185565b005b6100b1610262565b6040516100be9190610d28565b60405180910390f35b6100e160048036038101906100dc9190610d43565b610288565b005b6100fd60048036038101906100f89190610c89565b61043d565b005b61010761059d565b6040516101149190610d91565b60405180910390f35b61013760048036038101906101329190610d43565b6105c1565b6040516101449190610dbb565b60405180910390f35b61016760048036038101906101629190610c89565b610805565b005b610183600480360381019061017e9190610c89565b6109f3565b005b600082905060008173ffffffffffffffffffffffffffffffffffffffff1663db006a75846040518263ffffffff1660e01b81526004016101c59190610dbb565b602060405180830381600087803b1580156101df57600080fd5b505af11580156101f3573d6000803e3d6000fd5b505050506040513d601f19601f820116820180604052508101906102179190610deb565b90506000811461025c576040517f08c379a000000000000000000000000000000000000000000000000000000000815260040161025390610ec1565b60405180910390fd5b50505050565b600160009054906101000a900473ffffffffffffffffffffffffffffffffffffffff1681565b6000600167ffffffffffffffff8111156102a5576102a4610ee1565b5b6040519080825280602002602001820160405280156102d35781602001602082028036833780820191505090505b50905081816000815181106102eb576102ea610f10565b5b602002602001019073ffffffffffffffffffffffffffffffffffffffff16908173ffffffffffffffffffffffffffffffffffffffff168152505060008060009054906101000a900473ffffffffffffffffffffffffffffffffffffffff1673ffffffffffffffffffffffffffffffffffffffff1663c2998238836040518263ffffffff1660e01b81526004016103819190610ffd565b600060405180830381600087803b15801561039b57600080fd5b505af11580156103af573d6000803e3d6000fd5b505050506040513d6000823e3d601f19601f820116820180604052508101906103d89190611149565b90506000816000815181106103f0576103ef610f10565b5b602002602001015114610438576040517f08c379a000000000000000000000000000000000000000000000000000000000815260040161042f9061122a565b60405180910390fd5b505050565b600082905060008173ffffffffffffffffffffffffffffffffffffffff16636f307dc36040518163ffffffff1660e01b815260040160206040518083038186803b15801561048a57600080fd5b505afa15801561049e573d6000803e3d6000fd5b505050506040513d601f19601f820116820180604052508101906104c2919061125f565b905060008273ffffffffffffffffffffffffffffffffffffffff1663c5ebeaec856040518263ffffffff1660e01b81526004016104ff9190610dbb565b602060405180830381600087803b15801561051957600080fd5b505af115801561052d573d6000803e3d6000fd5b505050506040513d601f19601f820116820180604052508101906105519190610deb565b905060008114610596576040517f08c379a000000000000000000000000000000000000000000000000000000000815260040161058d90611324565b60405180910390fd5b5050505050565b60008054906101000a900473ffffffffffffffffffffffffffffffffffffffff1681565b60008060008060008054906101000a900473ffffffffffffffffffffffffffffffffffffffff1673ffffffffffffffffffffffffffffffffffffffff16635ec88c79306040518263ffffffff1660e01b81526004016106209190611353565b60606040518083038186803b15801561063857600080fd5b505afa15801561064c573d6000803e3d6000fd5b505050506040513d601f19601f82011682018060405250810190610670919061136e565b925092509250600083146106b9576040517f08c379a00000000000000000000000000000000000000000000000000000000081526004016106b090611459565b60405180910390fd5b600081146106fc576040517f08c379a00000000000000000000000000000000000000000000000000000000081526004016106f3906114c5565b60405180910390fd5b6000821161073f576040517f08c379a000000000000000000000000000000000000000000000000000000000815260040161073690611531565b60405180910390fd5b6000600160009054906101000a900473ffffffffffffffffffffffffffffffffffffffff1673ffffffffffffffffffffffffffffffffffffffff1663fc57d4df876040518263ffffffff1660e01b815260040161079c9190611353565b60206040518083038186803b1580156107b457600080fd5b505afa1580156107c8573d6000803e3d6000fd5b505050506040513d601f19601f820116820180604052508101906107ec9190610deb565b905080836107fa9190611580565b945050505050919050565b600082905060008173ffffffffffffffffffffffffffffffffffffffff16636f307dc36040518163ffffffff1660e01b815260040160206040518083038186803b15801561085257600080fd5b505afa158015610866573d6000803e3d6000fd5b505050506040513d601f19601f8201168201806040525081019061088a919061125f565b90508073ffffffffffffffffffffffffffffffffffffffff1663095ea7b385856040518363ffffffff1660e01b81526004016108c79291906115b1565b602060405180830381600087803b1580156108e157600080fd5b505af11580156108f5573d6000803e3d6000fd5b505050506040513d601f19601f820116820180604052508101906109199190611612565b5060008273ffffffffffffffffffffffffffffffffffffffff16630e752702856040518263ffffffff1660e01b81526004016109559190610dbb565b602060405180830381600087803b15801561096f57600080fd5b505af1158015610983573d6000803e3d6000fd5b505050506040513d601f19601f820116820180604052508101906109a79190610deb565b9050600081146109ec576040517f08c379a00000000000000000000000000000000000000000000000000000000081526004016109e3906116d7565b60405180910390fd5b5050505050565b600082905060008173ffffffffffffffffffffffffffffffffffffffff16636f307dc36040518163ffffffff1660e01b815260040160206040518083038186803b158015610a4057600080fd5b505afa158015610a54573d6000803e3d6000fd5b505050506040513d601f19601f82011682018060405250810190610a78919061125f565b90508073ffffffffffffffffffffffffffffffffffffffff1663095ea7b385856040518363ffffffff1660e01b8152600401610ab59291906115b1565b602060405180830381600087803b158015610acf57600080fd5b505af1158015610ae3573d6000803e3d6000fd5b505050506040513d601f19601f82011682018060405250810190610b079190611612565b5060008273ffffffffffffffffffffffffffffffffffffffff1663a0712d68856040518263ffffffff1660e01b8152600401610b439190610dbb565b602060405180830381600087803b158015610b5d57600080fd5b505af1158015610b71573d6000803e3d6000fd5b505050506040513d601f19601f82011682018060405250810190610b959190610deb565b905060008114610bda576040517f08c379a0000000000000000000000000000000000000000000000000000000008152600401610bd19061178f565b60405180910390fd5b5050505050565b6000604051905090565b600080fd5b600080fd5b600073ffffffffffffffffffffffffffffffffffffffff82169050919050565b6000610c2082610bf5565b9050919050565b610c3081610c15565b8114610c3b57600080fd5b50565b600081359050610c4d81610c27565b92915050565b6000819050919050565b610c6681610c53565b8114610c7157600080fd5b50565b600081359050610c8381610c5d565b92915050565b60008060408385031215610ca057610c9f610beb565b5b6000610cae85828601610c3e565b9250506020610cbf85828601610c74565b9150509250929050565b6000819050919050565b6000610cee610ce9610ce484610bf5565b610cc9565b610bf5565b9050919050565b6000610d0082610cd3565b9050919050565b6000610d1282610cf5565b9050919050565b610d2281610d07565b82525050565b6000602082019050610d3d6000830184610d19565b92915050565b600060208284031215610d5957610d58610beb565b5b6000610d6784828501610c3e565b91505092915050565b6000610d7b82610cf5565b9050919050565b610d8b81610d70565b82525050565b6000602082019050610da66000830184610d82565b92915050565b610db581610c53565b82525050565b6000602082019050610dd06000830184610dac565b92915050565b600081519050610de581610c5d565b92915050565b600060208284031215610e0157610e00610beb565b5b6000610e0f84828501610dd6565b91505092915050565b600082825260208201905092915050565b7f63546f6b656e2372656465656d2829206661696c656420736565206d6f72652060008201527f64657461696c20696e204572726f725265706f727465722e736f6c206f66204360208201527f6f6d706f756e6400000000000000000000000000000000000000000000000000604082015250565b6000610eab604783610e18565b9150610eb682610e29565b606082019050919050565b60006020820190508181036000830152610eda81610e9e565b9050919050565b7f4e487b7100000000000000000000000000000000000000000000000000000000600052604160045260246000fd5b7f4e487b7100000000000000000000000000000000000000000000000000000000600052603260045260246000fd5b600081519050919050565b600082825260208201905092915050565b6000819050602082019050919050565b610f7481610c15565b82525050565b6000610f868383610f6b565b60208301905092915050565b6000602082019050919050565b6000610faa82610f3f565b610fb48185610f4a565b9350610fbf83610f5b565b8060005b83811015610ff0578151610fd78882610f7a565b9750610fe283610f92565b925050600181019050610fc3565b5085935050505092915050565b600060208201905081810360008301526110178184610f9f565b905092915050565b600080fd5b6000601f19601f8301169050919050565b61103e82611024565b810181811067ffffffffffffffff8211171561105d5761105c610ee1565b5b80604052505050565b6000611070610be1565b905061107c8282611035565b919050565b600067ffffffffffffffff82111561109c5761109b610ee1565b5b602082029050602081019050919050565b600080fd5b60006110c56110c084611081565b611066565b905080838252602082019050602084028301858111156110e8576110e76110ad565b5b835b8181101561111157806110fd8882610dd6565b8452602084019350506020810190506110ea565b5050509392505050565b600082601f8301126111305761112f61101f565b5b81516111408482602086016110b2565b91505092915050565b60006020828403121561115f5761115e610beb565b5b600082015167ffffffffffffffff81111561117d5761117c610bf0565b5b6111898482850161111b565b91505092915050565b7f636f6d7074726f6c6c657223656e7465724d61726b65742829206661696c656460008201527f2e20736565206d6f72652064657461696c20696e204572726f725265706f727460208201527f65722e736f6c206f6620436f6d706f756e640000000000000000000000000000604082015250565b6000611214605283610e18565b915061121f82611192565b606082019050919050565b6000602082019050818103600083015261124381611207565b9050919050565b60008151905061125981610c27565b92915050565b60006020828403121561127557611274610beb565b5b60006112838482850161124a565b91505092915050565b7f63546f6b656e23626f72726f772829206661696c65642e20736565206d6f726560008201527f2064657461696c20696e204572726f725265706f727465722e736f6c206f662060208201527f436f6d706f756e64000000000000000000000000000000000000000000000000604082015250565b600061130e604883610e18565b91506113198261128c565b606082019050919050565b6000602082019050818103600083015261133d81611301565b9050919050565b61134d81610c15565b82525050565b60006020820190506113686000830184611344565b92915050565b60008060006060848603121561138757611386610beb565b5b600061139586828701610dd6565b93505060206113a686828701610dd6565b92505060406113b786828701610dd6565b9150509250925092565b7f636f6d7074726f6c6c6572236765744163636f756e744c69717569646974792860008201527f29206661696c65642e20736565206d6f72652064657461696c20696e2045727260208201527f6f725265706f727465722e736f6c206f6620436f6d706f756e64000000000000604082015250565b6000611443605a83610e18565b915061144e826113c1565b606082019050919050565b6000602082019050818103600083015261147281611436565b9050919050565b7f6163636f756e7420756e64657277617465720000000000000000000000000000600082015250565b60006114af601283610e18565b91506114ba82611479565b602082019050919050565b600060208201905081810360008301526114de816114a2565b9050919050565b7f6163636f756e7420646f6573206e6f74206861766520636f6c6c61746572616c600082015250565b600061151b602083610e18565b9150611526826114e5565b602082019050919050565b6000602082019050818103600083015261154a8161150e565b9050919050565b7f4e487b7100000000000000000000000000000000000000000000000000000000600052601260045260246000fd5b600061158b82610c53565b915061159683610c53565b9250826115a6576115a5611551565b5b828204905092915050565b60006040820190506115c66000830185611344565b6115d36020830184610dac565b9392505050565b60008115159050919050565b6115ef816115da565b81146115fa57600080fd5b50565b60008151905061160c816115e6565b92915050565b60006020828403121561162857611627610beb565b5b6000611636848285016115fd565b91505092915050565b7f63546f6b656e237265706179426f72726f772829206661696c65642e2073656560008201527f206d6f72652064657461696c20696e204572726f725265706f727465722e736f60208201527f6c206f6620436f6d706f756e6400000000000000000000000000000000000000604082015250565b60006116c1604d83610e18565b91506116cc8261163f565b606082019050919050565b600060208201905081810360008301526116f0816116b4565b9050919050565b7f63546f6b656e236d696e742829206661696c656420736565206d6f726520646560008201527f7461696c20696e204572726f725265706f727465722e736f6c206f6620436f6d60208201527f706f756e64000000000000000000000000000000000000000000000000000000604082015250565b6000611779604583610e18565b9150611784826116f7565b606082019050919050565b600060208201905081810360008301526117a88161176c565b905091905056fea264697066735822122058aea561b59fa006b1349e00712c30bb4731748ed55091ec869d6c314bd4e37b64736f6c63430008080033",
  "immutableReferences": {},
  "source": "pragma solidity 0.8.8;\r\n\r\nimport '@openzeppelin/contracts/token/ERC20/IERC20.sol';\r\nimport './CTokenInterface.sol';\r\nimport './ComptrollerInterface.sol';\r\nimport './PriceOracleInterface.sol';\r\n\r\ncontract CompInteract {\r\n    ComptrollerInterface public comptroller;\r\n    PriceOracleInterface public priceOracle;\r\n\r\n    constructor (address _comptroller, address _priceOracle) {\r\n        comptroller = ComptrollerInterface(_comptroller);\r\n        priceOracle = PriceOracleInterface(_priceOracle);\r\n    }\r\n\r\n    function supply(address cTokenAddress, uint underlyingAmount) external {\r\n        CTokenInterface cToken = CTokenInterface(cTokenAddress);\r\n        address underlyingAddress = cToken.underlying();\r\n        IERC20(underlyingAddress).approve(cTokenAddress, underlyingAmount);\r\n        uint result = cToken.mint(underlyingAmount);\r\n        require(\r\n            result == 0,\r\n            'cToken#mint() failed see more detail in ErrorReporter.sol of Compound'\r\n        );\r\n    }\r\n\r\n    function redeem(address cTokenAddress, uint cTokenAmount) external {\r\n        CTokenInterface cToken = CTokenInterface(cTokenAddress);\r\n        uint result = cToken.redeem(cTokenAmount);\r\n        require(\r\n            result == 0,\r\n            'cToken#redeem() failed see more detail in ErrorReporter.sol of Compound'\r\n        );\r\n    }\r\n\r\n    function enterMarket(address cTokenAddress) external {\r\n        address[] memory markets = new address[](1);\r\n        markets[0] = cTokenAddress;\r\n        uint[] memory results = comptroller.enterMarkets(markets);\r\n        require(\r\n            results[0] == 0,\r\n            'comptroller#enterMarket() failed. see more detail in ErrorReporter.sol of Compound'\r\n        );\r\n    }\r\n\r\n    function borrow(address cTokenAddress, uint borrowAmount) external {\r\n        CTokenInterface cToken = CTokenInterface(cTokenAddress);\r\n        address underlyingAddress = cToken.underlying();\r\n        uint result = cToken.borrow(borrowAmount);\r\n        require(\r\n            result == 0,\r\n            'cToken#borrow() failed. see more detail in ErrorReporter.sol of Compound'\r\n        );\r\n    }\r\n\r\n    function repayBorrow(address cTokenAddress, uint underlyingAmount) external {\r\n        CTokenInterface cToken = CTokenInterface(cTokenAddress);\r\n        address underlyingAddress = cToken.underlying();\r\n        IERC20(underlyingAddress).approve(cTokenAddress, underlyingAmount);\r\n        uint result = cToken.repayBorrow(underlyingAmount);\r\n        require(\r\n            result == 0,\r\n            'cToken#repayBorrow() failed. see more detail in ErrorReporter.sol of Compound'\r\n        );\r\n    }\r\n\r\n    function getmaxBorrow(address cTokenAddress) external view returns(uint){\r\n        (uint result, uint liquidity, uint shortfall) = comptroller\r\n        .getAccountLiquidity(address(this));\r\n        require(\r\n            result == 0,\r\n            'comptroller#getAccountLiquidity() failed. see more detail in ErrorReporter.sol of Compound'\r\n        );\r\n        require(shortfall == 0, 'account underwater');\r\n        require(liquidity > 0, 'account does not have collateral');\r\n        uint udnerlyingPrice = priceOracle.getUnderlyingPrice(cTokenAddress);\r\n        return liquidity / udnerlyingPrice;\r\n\r\n    }\r\n}",
  "sourcePath": "E:\\dishonored 2\\Blockchain\\Project\\blockchain\\Compound Interact\\contracts\\CompInteract.sol",
  "compiler": {
    "name": "solc",
    "version": "0.8.8+commit.dddeac2f.Emscripten.clang"
  },
  "schemaVersion": "3.4.4",
  "updatedAt": "2022-06-19T19:35:17.497Z",
  "devdoc": {
    "kind": "dev",
    "methods": {},
    "version": 1
  },
  "userdoc": {
    "kind": "user",
    "methods": {},
    "version": 1
  }
}